{
  "contractName": "SeedifyFundsContract",
  "abi": [
    {
      "inputs": [],
      "stateMutability": "nonpayable",
      "type": "constructor"
    },
    {
      "anonymous": false,
      "inputs": [
        {
          "indexed": true,
          "internalType": "address",
          "name": "previousOwner",
          "type": "address"
        },
        {
          "indexed": true,
          "internalType": "address",
          "name": "newOwner",
          "type": "address"
        }
      ],
      "name": "OwnershipTransferred",
      "type": "event"
    },
    {
      "inputs": [],
      "name": "maxCap",
      "outputs": [
        {
          "internalType": "uint256",
          "name": "",
          "type": "uint256"
        }
      ],
      "stateMutability": "view",
      "type": "function"
    },
    {
      "inputs": [],
      "name": "name",
      "outputs": [
        {
          "internalType": "string",
          "name": "",
          "type": "string"
        }
      ],
      "stateMutability": "view",
      "type": "function"
    },
    {
      "inputs": [],
      "name": "oneTier",
      "outputs": [
        {
          "internalType": "uint256",
          "name": "",
          "type": "uint256"
        }
      ],
      "stateMutability": "view",
      "type": "function"
    },
    {
      "inputs": [],
      "name": "owner",
      "outputs": [
        {
          "internalType": "address",
          "name": "",
          "type": "address"
        }
      ],
      "stateMutability": "view",
      "type": "function"
    },
    {
      "inputs": [],
      "name": "projectOwner",
      "outputs": [
        {
          "internalType": "address payable",
          "name": "",
          "type": "address"
        }
      ],
      "stateMutability": "view",
      "type": "function"
    },
    {
      "inputs": [],
      "name": "saleEndTime",
      "outputs": [
        {
          "internalType": "uint256",
          "name": "",
          "type": "uint256"
        }
      ],
      "stateMutability": "view",
      "type": "function"
    },
    {
      "inputs": [],
      "name": "saleStartTime",
      "outputs": [
        {
          "internalType": "uint256",
          "name": "",
          "type": "uint256"
        }
      ],
      "stateMutability": "view",
      "type": "function"
    },
    {
      "inputs": [],
      "name": "threeTier",
      "outputs": [
        {
          "internalType": "uint256",
          "name": "",
          "type": "uint256"
        }
      ],
      "stateMutability": "view",
      "type": "function"
    },
    {
      "inputs": [],
      "name": "totalBnbReceived",
      "outputs": [
        {
          "internalType": "uint256",
          "name": "",
          "type": "uint256"
        }
      ],
      "stateMutability": "view",
      "type": "function"
    },
    {
      "inputs": [
        {
          "internalType": "address",
          "name": "newOwner",
          "type": "address"
        }
      ],
      "name": "transferOwnership",
      "outputs": [],
      "stateMutability": "nonpayable",
      "type": "function"
    },
    {
      "inputs": [],
      "name": "twoTier",
      "outputs": [
        {
          "internalType": "uint256",
          "name": "",
          "type": "uint256"
        }
      ],
      "stateMutability": "view",
      "type": "function"
    },
    {
      "stateMutability": "payable",
      "type": "receive"
    },
    {
      "inputs": [
        {
          "internalType": "uint256",
          "name": "_tierOneValue",
          "type": "uint256"
        },
        {
          "internalType": "uint256",
          "name": "_tierTwoValue",
          "type": "uint256"
        },
        {
          "internalType": "uint256",
          "name": "_tierThreeValue",
          "type": "uint256"
        }
      ],
      "name": "updateTierValues",
      "outputs": [],
      "stateMutability": "nonpayable",
      "type": "function"
    },
    {
      "inputs": [
        {
          "internalType": "address[]",
          "name": "_address",
          "type": "address[]"
        }
      ],
      "name": "addWhitelistOne",
      "outputs": [],
      "stateMutability": "nonpayable",
      "type": "function"
    },
    {
      "inputs": [
        {
          "internalType": "address[]",
          "name": "_address",
          "type": "address[]"
        }
      ],
      "name": "addWhitelistTwo",
      "outputs": [],
      "stateMutability": "nonpayable",
      "type": "function"
    },
    {
      "inputs": [
        {
          "internalType": "address[]",
          "name": "_address",
          "type": "address[]"
        }
      ],
      "name": "addWhitelistThree",
      "outputs": [],
      "stateMutability": "nonpayable",
      "type": "function"
    },
    {
      "inputs": [
        {
          "internalType": "address",
          "name": "_address",
          "type": "address"
        }
      ],
      "name": "getWhitelistOne",
      "outputs": [
        {
          "internalType": "bool",
          "name": "",
          "type": "bool"
        }
      ],
      "stateMutability": "view",
      "type": "function"
    },
    {
      "inputs": [
        {
          "internalType": "address",
          "name": "_address",
          "type": "address"
        }
      ],
      "name": "getWhitelistTwo",
      "outputs": [
        {
          "internalType": "bool",
          "name": "",
          "type": "bool"
        }
      ],
      "stateMutability": "view",
      "type": "function"
    },
    {
      "inputs": [
        {
          "internalType": "address",
          "name": "_address",
          "type": "address"
        }
      ],
      "name": "getWhitelistThree",
      "outputs": [
        {
          "internalType": "bool",
          "name": "",
          "type": "bool"
        }
      ],
      "stateMutability": "view",
      "type": "function"
    }
  ],
  "bytecode": "0x60806040526040518060400160405280600d81526020017f536565646966792e66756e64730000000000000000000000000000000000000081525060019080519060200190620000519291906200013d565b506127106002553480156200006557600080fd5b50336000806101000a81548173ffffffffffffffffffffffffffffffffffffffff021916908373ffffffffffffffffffffffffffffffffffffffff16021790555069152d02c7e14af680000060028190555042600381905550620151804201600481905550600160078190555060036008819055506005600981905550735aedae68cccd22da73d62a732faf5f5f8304b7b6600660006101000a81548173ffffffffffffffffffffffffffffffffffffffff021916908373ffffffffffffffffffffffffffffffffffffffff160217905550620001e3565b828054600181600116156101000203166002900490600052602060002090601f016020900481019282601f106200018057805160ff1916838001178555620001b1565b82800160010185558215620001b1579182015b82811115620001b057825182559160200191906001019062000193565b5b509050620001c09190620001c4565b5090565b5b80821115620001df576000816000905550600101620001c5565b5090565b61162080620001f36000396000f3fe60806040526004361061010d5760003560e01c80634dce516811610095578063b9ec0dde11610064578063b9ec0dde146109bb578063c1f5138a14610a22578063d8494f6b14610a4d578063ed338ff114610b12578063f2fde38b14610b3d57610526565b80634dce5168146108a757806352bbeef21461090e5780638da5cb5b14610939578063a4475ce41461097a57610526565b806323548b8b116100dc57806323548b8b146106785780632c1ccb45146106a35780633bb74315146107685780634796e3191461079357806349f4ebb91461085857610526565b806306fdde031461052b5780631cbaee2d146105bb5780631e3d479a146105e657806322b153341461061157610526565b366105265760035442101561018a576040517f08c379a000000000000000000000000000000000000000000000000000000000815260040180806020018281038252601c8152602001807f5468652073616c65206973206e6f74207374617274656420796574200000000081525060200191505060405180910390fd5b600454421115610202576040517f08c379a00000000000000000000000000000000000000000000000000000000081526004018080602001828103825260128152602001807f5468652073616c6520697320636c6f736564000000000000000000000000000081525060200191505060405180910390fd5b6007543411610301576001151561021833610b8e565b15151461022457600080fd5b60025434600554011115610283576040517f08c379a00000000000000000000000000000000000000000000000000000000081526004018080602001828103825260288152602001806115c36028913960400191505060405180910390fd5b34600560008282540192505081905550600660009054906101000a900473ffffffffffffffffffffffffffffffffffffffff1673ffffffffffffffffffffffffffffffffffffffff166108fc479081150290604051600060405180830381858888f193505050501580156102fb573d6000803e3d6000fd5b50610524565b6007543411801561031457506008543411155b1561040f576001151561032633610ccc565b15151461033257600080fd5b60025434600554011115610391576040517f08c379a00000000000000000000000000000000000000000000000000000000081526004018080602001828103825260288152602001806115c36028913960400191505060405180910390fd5b34600560008282540192505081905550600660009054906101000a900473ffffffffffffffffffffffffffffffffffffffff1673ffffffffffffffffffffffffffffffffffffffff166108fc479081150290604051600060405180830381858888f19350505050158015610409573d6000803e3d6000fd5b50610523565b6008543411801561042257506009543411155b1561051d576001151561043433610e0a565b15151461044057600080fd5b6002543460055401111561049f576040517f08c379a00000000000000000000000000000000000000000000000000000000081526004018080602001828103825260288152602001806115c36028913960400191505060405180910390fd5b34600560008282540192505081905550600660009054906101000a900473ffffffffffffffffffffffffffffffffffffffff1673ffffffffffffffffffffffffffffffffffffffff166108fc479081150290604051600060405180830381858888f19350505050158015610517573d6000803e3d6000fd5b50610522565b600080fd5b5b5b005b600080fd5b34801561053757600080fd5b50610540610f48565b6040518080602001828103825283818151815260200191508051906020019080838360005b83811015610580578082015181840152602081019050610565565b50505050905090810190601f1680156105ad5780820380516001836020036101000a031916815260200191505b509250505060405180910390f35b3480156105c757600080fd5b506105d0610fe6565b6040518082815260200191505060405180910390f35b3480156105f257600080fd5b506105fb610fec565b6040518082815260200191505060405180910390f35b34801561061d57600080fd5b506106606004803603602081101561063457600080fd5b81019080803573ffffffffffffffffffffffffffffffffffffffff169060200190929190505050610e0a565b60405180821515815260200191505060405180910390f35b34801561068457600080fd5b5061068d610ff2565b6040518082815260200191505060405180910390f35b3480156106af57600080fd5b50610766600480360360208110156106c657600080fd5b81019080803590602001906401000000008111156106e357600080fd5b8201836020820111156106f557600080fd5b8035906020019184602083028401116401000000008311171561071757600080fd5b919080806020026020016040519081016040528093929190818152602001838360200280828437600081840152601f19601f820116905080830192505050505050509192919290505050610ff8565b005b34801561077457600080fd5b5061077d6110d1565b6040518082815260200191505060405180910390f35b34801561079f57600080fd5b50610856600480360360208110156107b657600080fd5b81019080803590602001906401000000008111156107d357600080fd5b8201836020820111156107e557600080fd5b8035906020019184602083028401116401000000008311171561080757600080fd5b919080806020026020016040519081016040528093929190818152602001838360200280828437600081840152601f19601f8201169050808301925050505050505091929192905050506110d7565b005b34801561086457600080fd5b506108a56004803603606081101561087b57600080fd5b810190808035906020019092919080359060200190929190803590602001909291905050506111b0565b005b3480156108b357600080fd5b506108f6600480360360208110156108ca57600080fd5b81019080803573ffffffffffffffffffffffffffffffffffffffff169060200190929190505050610b8e565b60405180821515815260200191505060405180910390f35b34801561091a57600080fd5b50610923611240565b6040518082815260200191505060405180910390f35b34801561094557600080fd5b5061094e611246565b604051808273ffffffffffffffffffffffffffffffffffffffff16815260200191505060405180910390f35b34801561098657600080fd5b5061098f61126a565b604051808273ffffffffffffffffffffffffffffffffffffffff16815260200191505060405180910390f35b3480156109c757600080fd5b50610a0a600480360360208110156109de57600080fd5b81019080803573ffffffffffffffffffffffffffffffffffffffff169060200190929190505050610ccc565b60405180821515815260200191505060405180910390f35b348015610a2e57600080fd5b50610a37611290565b6040518082815260200191505060405180910390f35b348015610a5957600080fd5b50610b1060048036036020811015610a7057600080fd5b8101908080359060200190640100000000811115610a8d57600080fd5b820183602082011115610a9f57600080fd5b80359060200191846020830284011164010000000083111715610ac157600080fd5b919080806020026020016040519081016040528093929190818152602001838360200280828437600081840152601f19601f820116905080830192505050505050509192919290505050611296565b005b348015610b1e57600080fd5b50610b2761136f565b6040518082815260200191505060405180910390f35b348015610b4957600080fd5b50610b8c60048036036020811015610b6057600080fd5b81019080803573ffffffffffffffffffffffffffffffffffffffff169060200190929190505050611375565b005b600080600090505b600a80549050811015610cc157610bab6114c4565b600a8281548110610bb857fe5b9060005260206000200160405180602001604052908160008201805480602002602001604051908101604052809291908181526020018280548015610c5257602002820191906000526020600020905b8160009054906101000a900473ffffffffffffffffffffffffffffffffffffffff1673ffffffffffffffffffffffffffffffffffffffff1681526020019060010190808311610c08575b50505050508152505090508373ffffffffffffffffffffffffffffffffffffffff1681600001518381518110610c8457fe5b602002602001015173ffffffffffffffffffffffffffffffffffffffff161415610cb357600192505050610cc7565b508080600101915050610b96565b60009150505b919050565b600080600090505b600b80549050811015610dff57610ce96114d7565b600b8281548110610cf657fe5b9060005260206000200160405180602001604052908160008201805480602002602001604051908101604052809291908181526020018280548015610d9057602002820191906000526020600020905b8160009054906101000a900473ffffffffffffffffffffffffffffffffffffffff1673ffffffffffffffffffffffffffffffffffffffff1681526020019060010190808311610d46575b50505050508152505090508373ffffffffffffffffffffffffffffffffffffffff1681600001518381518110610dc257fe5b602002602001015173ffffffffffffffffffffffffffffffffffffffff161415610df157600192505050610e05565b508080600101915050610cd4565b60009150505b919050565b600080600090505b600c80549050811015610f3d57610e276114ea565b600c8281548110610e3457fe5b9060005260206000200160405180602001604052908160008201805480602002602001604051908101604052809291908181526020018280548015610ece57602002820191906000526020600020905b8160009054906101000a900473ffffffffffffffffffffffffffffffffffffffff1673ffffffffffffffffffffffffffffffffffffffff1681526020019060010190808311610e84575b50505050508152505090508373ffffffffffffffffffffffffffffffffffffffff1681600001518381518110610f0057fe5b602002602001015173ffffffffffffffffffffffffffffffffffffffff161415610f2f57600192505050610f43565b508080600101915050610e12565b60009150505b919050565b60018054600181600116156101000203166002900480601f016020809104026020016040519081016040528092919081815260200182805460018160011615610100020316600290048015610fde5780601f10610fb357610100808354040283529160200191610fde565b820191906000526020600020905b815481529060010190602001808311610fc157829003601f168201915b505050505081565b60035481565b60095481565b60025481565b60008054906101000a900473ffffffffffffffffffffffffffffffffffffffff1673ffffffffffffffffffffffffffffffffffffffff163373ffffffffffffffffffffffffffffffffffffffff161461105057600080fd5b6000600190505b815181116110cd576110676114c4565b6040518060200160405280848152509050600a819080600181540180825580915050600190039060005260206000200160009091909190915060008201518160000190805190602001906110bc9291906114fd565b505050508080600101915050611057565b5050565b60085481565b60008054906101000a900473ffffffffffffffffffffffffffffffffffffffff1673ffffffffffffffffffffffffffffffffffffffff163373ffffffffffffffffffffffffffffffffffffffff161461112f57600080fd5b6000600190505b815181116111ac576111466114d7565b6040518060200160405280848152509050600b8190806001815401808255809150506001900390600052602060002001600090919091909150600082015181600001908051906020019061119b9291906114fd565b505050508080600101915050611136565b5050565b60008054906101000a900473ffffffffffffffffffffffffffffffffffffffff1673ffffffffffffffffffffffffffffffffffffffff163373ffffffffffffffffffffffffffffffffffffffff161461120857600080fd5b670de0b6b3a76400008302600781905550670de0b6b3a76400008202600881905550670de0b6b3a76400008102600981905550505050565b60075481565b60008054906101000a900473ffffffffffffffffffffffffffffffffffffffff1681565b600660009054906101000a900473ffffffffffffffffffffffffffffffffffffffff1681565b60055481565b60008054906101000a900473ffffffffffffffffffffffffffffffffffffffff1673ffffffffffffffffffffffffffffffffffffffff163373ffffffffffffffffffffffffffffffffffffffff16146112ee57600080fd5b6000600190505b8151811161136b576113056114ea565b6040518060200160405280848152509050600c8190806001815401808255809150506001900390600052602060002001600090919091909150600082015181600001908051906020019061135a9291906114fd565b5050505080806001019150506112f5565b5050565b60045481565b60008054906101000a900473ffffffffffffffffffffffffffffffffffffffff1673ffffffffffffffffffffffffffffffffffffffff163373ffffffffffffffffffffffffffffffffffffffff16146113cd57600080fd5b600073ffffffffffffffffffffffffffffffffffffffff168173ffffffffffffffffffffffffffffffffffffffff16141561140757600080fd5b8073ffffffffffffffffffffffffffffffffffffffff1660008054906101000a900473ffffffffffffffffffffffffffffffffffffffff1673ffffffffffffffffffffffffffffffffffffffff167f8be0079c531659141344cd1fd0a4f28419497f9722a3daafe3b4186f6b6457e060405160405180910390a3806000806101000a81548173ffffffffffffffffffffffffffffffffffffffff021916908373ffffffffffffffffffffffffffffffffffffffff16021790555050565b6040518060200160405280606081525090565b6040518060200160405280606081525090565b6040518060200160405280606081525090565b828054828255906000526020600020908101928215611576579160200282015b828111156115755782518260006101000a81548173ffffffffffffffffffffffffffffffffffffffff021916908373ffffffffffffffffffffffffffffffffffffffff1602179055509160200191906001019061151d565b5b5090506115839190611587565b5090565b5b808211156115be57600081816101000a81549073ffffffffffffffffffffffffffffffffffffffff021916905550600101611588565b509056fe627579546f6b656e733a20707572636861736520776f756c6420657863656564206d617820636170a2646970667358221220505af68b3d8938bf999c4e92fcc594f2426c975be47919e4cd6faf90cf391d1c64736f6c634300060c0033",
  "immutableReferences": {},
  "source": "// SPDX-License-Identifier: UNLICENSED\npragma solidity ^0.6.0;\nimport \"../Ownable/Ownable.sol\";\n\n//SeedifyFundsContract\n\ncontract SeedifyFundsContract is Ownable {\n\n  //token attributes\n  string public name = \"Seedify.funds\"; //name of the contract\n  uint public maxCap = 10000; // Max cap in BNB\n  uint256 public saleStartTime; // start sale time\n  uint256 public saleEndTime; // end sale time\n  uint256 public totalBnbReceived; // total bnd received\n  address payable public projectOwner;\n  // tiers limit\n  uint public oneTier;  // value in bnb\n  uint public twoTier ; // value in bnb\n  uint public threeTier;  // value in bnb\n\n  // Structure for tier one\n  struct TierOne {\n    address[] _address;\n  }\n  // Structure for tier two\n  struct TierTwo {\n    address[] _address;\n  }\n  // Structure for tier two\n  struct TierThree {\n    address[] _address;\n  }\n\n  // different tiers to whitelist address  \n  TierOne[] internal whitelistTierOne;\n  TierTwo[] internal whitelistTierTwo;\n  TierThree[] internal whitelistTierThree;\n\n\n  // CONSTRUCTOR  \n\n  // CONSTRUCTOR  \n  constructor() public {\n    maxCap = 100000 * 10**18;\n    saleStartTime = now;\n    saleEndTime = now + 86400;\n    oneTier = 1; // 1 bnb\n    twoTier = 3; // 3 bnb\n    threeTier = 5; // 5 bnb\n    projectOwner = 0x5AedaE68CcCd22dA73D62A732FAf5f5F8304B7B6;\n  }\n\n  // function to update the tiers value manually\n  function updateTierValues(uint256 _tierOneValue, uint256 _tierTwoValue, uint256 _tierThreeValue) external onlyOwner {\n    oneTier =_tierOneValue* 10 ** 18;\n    twoTier = _tierTwoValue * 10 ** 18;\n    threeTier =_tierThreeValue* 10 ** 18;\n  }\n\n  //add the address in Whitelist tier One to invest\n  function addWhitelistOne(address[] memory _address) external onlyOwner {\n    uint i;\n    for(i= 1; i<= _address.length ; i++){\n    TierOne memory a = TierOne(_address);\n    whitelistTierOne.push(a);\n    }\n  }\n\n  //add the address in Whitelist tier two to invest\n  function addWhitelistTwo(address[] memory _address) external onlyOwner {\n    uint i;\n    for(i= 1; i<= _address.length ; i++){\n    TierTwo memory b = TierTwo(_address);\n    whitelistTierTwo.push(b);\n    }\n  }\n\n  //add the address in Whitelist tier three to invest\n  function addWhitelistThree(address[] memory _address) external onlyOwner {\n    uint i;\n    for(i= 1; i<= _address.length ; i++){\n    TierThree memory c = TierThree(_address);\n    whitelistTierThree.push(c);\n    }\n  }\n\n  // check the address in whitelist tier one\n  function getWhitelistOne(address _address) public view returns(bool) {\n    uint i;\n    for (i = 0; i < whitelistTierOne.length; i++) {\n      TierOne memory a = whitelistTierOne[i];\n      if (a._address[i] == _address) {\n        return true;\n      }\n    }\n    return false;\n  }\n\n  // check the address in whitelist tier two\n  function getWhitelistTwo(address _address) public view returns(bool) {\n    uint i;\n    for (i = 0; i < whitelistTierTwo.length; i++) {\n      TierTwo memory b = whitelistTierTwo[i];\n      if (b._address[i] == _address) {\n        return true;\n      }\n    }\n    return false;\n  }\n\n  // check the address in whitelist tier three\n  function getWhitelistThree(address _address) public view returns(bool) {\n    uint i;\n    for (i = 0; i < whitelistTierThree.length; i++) {\n      TierThree memory c = whitelistTierThree[i];\n      if (c._address[i] == _address) {\n        return true;\n      }\n    }\n    return false;\n  }\n\n  // send bnb to the contract address\n  receive() external payable {\n     require(now >= saleStartTime, \"The sale is not started yet \"); // solhint-disable\n     require(now <= saleEndTime, \"The sale is closed\"); // solhint-disable\n     \n    if (msg.value <= oneTier) { // smaller and Equal to 1st tier BNB \n      require(getWhitelistOne(msg.sender) == true);\n      require(totalBnbReceived + msg.value <= maxCap, \"buyTokens: purchase would exceed max cap\");\n      totalBnbReceived += msg.value;\n      projectOwner.transfer(address(this).balance);\n      \n    } else if (msg.value > oneTier && msg.value <= twoTier) { // Greater than 1st and smaller/equal to 2nd tier bnb\n      require(getWhitelistTwo(msg.sender) == true);\n      require(totalBnbReceived + msg.value <= maxCap, \"buyTokens: purchase would exceed max cap\");\n      totalBnbReceived += msg.value;\n      projectOwner.transfer(address(this).balance);\n      \n    } else if (msg.value > twoTier && msg.value <= threeTier) { // Greater than 2nd and smaller/equal to 3rd tier bnb\n      require(getWhitelistThree(msg.sender) == true);\n      require(totalBnbReceived + msg.value <= maxCap, \"buyTokens: purchase would exceed max cap\");\n      totalBnbReceived += msg.value;\n      projectOwner.transfer(address(this).balance);\n      \n    } else {\n      revert();\n    }\n  }\n}",
  "sourcePath": "/var/malkeet/seedify/contracts/SeedifyFund/SeedifyFund.sol",
  "compiler": {
    "name": "solc",
    "version": "0.6.12+commit.27d51765.Emscripten.clang"
  },
  "schemaVersion": "3.3.4",
  "updatedAt": "2021-05-20T10:35:28.767Z",
  "devdoc": {
    "kind": "dev",
    "methods": {
      "transferOwnership(address)": {
        "details": "Allows the current owner to transfer control of the contract to a newOwner.",
        "params": {
          "newOwner": "The address to transfer ownership to."
        }
      }
    },
    "version": 1
  },
  "userdoc": {
    "kind": "user",
    "methods": {},
    "version": 1
  }
}