{
  "contractName": "SeedifyFundsContract",
  "abi": [
    {
      "inputs": [
        {
          "internalType": "uint256",
          "name": "_maxCap",
          "type": "uint256"
        },
        {
          "internalType": "uint256",
          "name": "_saleStartTime",
          "type": "uint256"
        },
        {
          "internalType": "uint256",
          "name": "_saleEndTime",
          "type": "uint256"
        },
        {
          "internalType": "uint256",
          "name": "_oneTier",
          "type": "uint256"
        },
        {
          "internalType": "uint256",
          "name": "_twoTier",
          "type": "uint256"
        },
        {
          "internalType": "uint256",
          "name": "_threeTier",
          "type": "uint256"
        },
        {
          "internalType": "address payable",
          "name": "_projectOwner",
          "type": "address"
        }
      ],
      "stateMutability": "nonpayable",
      "type": "constructor"
    },
    {
      "anonymous": false,
      "inputs": [
        {
          "indexed": true,
          "internalType": "address",
          "name": "previousOwner",
          "type": "address"
        },
        {
          "indexed": true,
          "internalType": "address",
          "name": "newOwner",
          "type": "address"
        }
      ],
      "name": "OwnershipTransferred",
      "type": "event"
    },
    {
      "inputs": [],
      "name": "NAME",
      "outputs": [
        {
          "internalType": "string",
          "name": "",
          "type": "string"
        }
      ],
      "stateMutability": "view",
      "type": "function"
    },
    {
      "inputs": [],
      "name": "maxCap",
      "outputs": [
        {
          "internalType": "uint256",
          "name": "",
          "type": "uint256"
        }
      ],
      "stateMutability": "view",
      "type": "function"
    },
    {
      "inputs": [],
      "name": "oneTier",
      "outputs": [
        {
          "internalType": "uint256",
          "name": "",
          "type": "uint256"
        }
      ],
      "stateMutability": "view",
      "type": "function"
    },
    {
      "inputs": [],
      "name": "oneTierArrLength",
      "outputs": [
        {
          "internalType": "uint256",
          "name": "",
          "type": "uint256"
        }
      ],
      "stateMutability": "view",
      "type": "function"
    },
    {
      "inputs": [],
      "name": "owner",
      "outputs": [
        {
          "internalType": "address",
          "name": "",
          "type": "address"
        }
      ],
      "stateMutability": "view",
      "type": "function"
    },
    {
      "inputs": [],
      "name": "projectOwner",
      "outputs": [
        {
          "internalType": "address payable",
          "name": "",
          "type": "address"
        }
      ],
      "stateMutability": "view",
      "type": "function"
    },
    {
      "inputs": [],
      "name": "saleEndTime",
      "outputs": [
        {
          "internalType": "uint256",
          "name": "",
          "type": "uint256"
        }
      ],
      "stateMutability": "view",
      "type": "function"
    },
    {
      "inputs": [],
      "name": "saleStartTime",
      "outputs": [
        {
          "internalType": "uint256",
          "name": "",
          "type": "uint256"
        }
      ],
      "stateMutability": "view",
      "type": "function"
    },
    {
      "inputs": [],
      "name": "threeTier",
      "outputs": [
        {
          "internalType": "uint256",
          "name": "",
          "type": "uint256"
        }
      ],
      "stateMutability": "view",
      "type": "function"
    },
    {
      "inputs": [],
      "name": "threeTierArrLength",
      "outputs": [
        {
          "internalType": "uint256",
          "name": "",
          "type": "uint256"
        }
      ],
      "stateMutability": "view",
      "type": "function"
    },
    {
      "inputs": [],
      "name": "totalBnbReceived",
      "outputs": [
        {
          "internalType": "uint256",
          "name": "",
          "type": "uint256"
        }
      ],
      "stateMutability": "view",
      "type": "function"
    },
    {
      "inputs": [
        {
          "internalType": "address",
          "name": "newOwner",
          "type": "address"
        }
      ],
      "name": "transferOwnership",
      "outputs": [],
      "stateMutability": "nonpayable",
      "type": "function"
    },
    {
      "inputs": [],
      "name": "twoTier",
      "outputs": [
        {
          "internalType": "uint256",
          "name": "",
          "type": "uint256"
        }
      ],
      "stateMutability": "view",
      "type": "function"
    },
    {
      "inputs": [],
      "name": "twoTierArrLength",
      "outputs": [
        {
          "internalType": "uint256",
          "name": "",
          "type": "uint256"
        }
      ],
      "stateMutability": "view",
      "type": "function"
    },
    {
      "stateMutability": "payable",
      "type": "receive"
    },
    {
      "inputs": [
        {
          "internalType": "uint256",
          "name": "_tierOneValue",
          "type": "uint256"
        },
        {
          "internalType": "uint256",
          "name": "_tierTwoValue",
          "type": "uint256"
        },
        {
          "internalType": "uint256",
          "name": "_tierThreeValue",
          "type": "uint256"
        }
      ],
      "name": "updateTierValues",
      "outputs": [],
      "stateMutability": "nonpayable",
      "type": "function"
    },
    {
      "inputs": [
        {
          "internalType": "address",
          "name": "_address",
          "type": "address"
        }
      ],
      "name": "addWhitelistOne",
      "outputs": [],
      "stateMutability": "nonpayable",
      "type": "function"
    },
    {
      "inputs": [
        {
          "internalType": "address",
          "name": "_address",
          "type": "address"
        }
      ],
      "name": "addWhitelistTwo",
      "outputs": [],
      "stateMutability": "nonpayable",
      "type": "function"
    },
    {
      "inputs": [
        {
          "internalType": "address",
          "name": "_address",
          "type": "address"
        }
      ],
      "name": "addWhitelistThree",
      "outputs": [],
      "stateMutability": "nonpayable",
      "type": "function"
    },
    {
      "inputs": [
        {
          "internalType": "address",
          "name": "_address",
          "type": "address"
        }
      ],
      "name": "getWhitelistOne",
      "outputs": [
        {
          "internalType": "bool",
          "name": "",
          "type": "bool"
        }
      ],
      "stateMutability": "view",
      "type": "function"
    },
    {
      "inputs": [
        {
          "internalType": "address",
          "name": "_address",
          "type": "address"
        }
      ],
      "name": "getWhitelistTwo",
      "outputs": [
        {
          "internalType": "bool",
          "name": "",
          "type": "bool"
        }
      ],
      "stateMutability": "view",
      "type": "function"
    },
    {
      "inputs": [
        {
          "internalType": "address",
          "name": "_address",
          "type": "address"
        }
      ],
      "name": "getWhitelistThree",
      "outputs": [
        {
          "internalType": "bool",
          "name": "",
          "type": "bool"
        }
      ],
      "stateMutability": "view",
      "type": "function"
    }
  ],
  "bytecode": "0x60e060405260006006556000600755600060085534801561001f57600080fd5b506040516117d83803806117d8833981810160405260e081101561004257600080fd5b8101908080519060200190929190805190602001909291908051906020019092919080519060200190929190805190602001909291908051906020019092919080519060200190929190505050336000806101000a81548173ffffffffffffffffffffffffffffffffffffffff021916908373ffffffffffffffffffffffffffffffffffffffff160217905550670de0b6b3a76400008702608081815250508560a081815250508460c08181525050670de0b6b3a76400008402600381905550670de0b6b3a76400008302600481905550670de0b6b3a7640000820260058190555080600260006101000a81548173ffffffffffffffffffffffffffffffffffffffff021916908373ffffffffffffffffffffffffffffffffffffffff1602179055505050505050505060805160a05160c0516116276101b1600039806101cb52806114185250806101355280610e435250806102e552806103d452806104c35280610e6d52506116276000f3fe60806040526004361061012e5760003560e01c806362ace63f116100ab578063b9ec0dde1161006f578063b9ec0dde146109b1578063c1f5138a14610a18578063d4d4fd4814610a43578063ed338ff114610a6e578063ef758e0414610a99578063f2fde38b14610ac457610588565b806362ace63f146107fd5780638da5cb5b1461084e578063a3f4df7e1461088f578063a4475ce41461091f578063ae4fdad91461096057610588565b80633bb74315116100f25780633bb74315146106a05780633c6bb474146106cb57806349f4ebb91461071c5780634dce51681461076b57806352bbeef2146107d257610588565b80631cbaee2d1461058d5780631e3d479a146105b857806322b15334146105e357806323548b8b1461064a57806329a680e31461067557610588565b36610588577f00000000000000000000000000000000000000000000000000000000000000004210156101c9576040517f08c379a000000000000000000000000000000000000000000000000000000000815260040180806020018281038252601c8152602001807f5468652073616c65206973206e6f74207374617274656420796574200000000081525060200191505060405180910390fd5b7f000000000000000000000000000000000000000000000000000000000000000042111561025f576040517f08c379a00000000000000000000000000000000000000000000000000000000081526004018080602001828103825260128152602001807f5468652073616c6520697320636c6f736564000000000000000000000000000081525060200191505060405180910390fd5b60035434116103a15761027133610b15565b6102e3576040517f08c379a000000000000000000000000000000000000000000000000000000000815260040180806020018281038252601f8152602001807f546869732061646472657373206973206e6f742077686974656c69737465640081525060200191505060405180910390fd5b7f000000000000000000000000000000000000000000000000000000000000000034600154011115610360576040517f08c379a00000000000000000000000000000000000000000000000000000000081526004018080602001828103825260288152602001806115ca6028913960400191505060405180910390fd5b3460016000828254019250508190555061039c600260009054906101000a900473ffffffffffffffffffffffffffffffffffffffff1647610bbb565b610586565b600354341180156103b457506004543411155b1561049057600115156103c633610cf5565b1515146103d257600080fd5b7f00000000000000000000000000000000000000000000000000000000000000003460015401111561044f576040517f08c379a00000000000000000000000000000000000000000000000000000000081526004018080602001828103825260288152602001806115ca6028913960400191505060405180910390fd5b3460016000828254019250508190555061048b600260009054906101000a900473ffffffffffffffffffffffffffffffffffffffff1647610bbb565b610585565b600454341180156104a357506005543411155b1561057f57600115156104b533610d9b565b1515146104c157600080fd5b7f00000000000000000000000000000000000000000000000000000000000000003460015401111561053e576040517f08c379a00000000000000000000000000000000000000000000000000000000081526004018080602001828103825260288152602001806115ca6028913960400191505060405180910390fd5b3460016000828254019250508190555061057a600260009054906101000a900473ffffffffffffffffffffffffffffffffffffffff1647610bbb565b610584565b600080fd5b5b5b005b600080fd5b34801561059957600080fd5b506105a2610e41565b6040518082815260200191505060405180910390f35b3480156105c457600080fd5b506105cd610e65565b6040518082815260200191505060405180910390f35b3480156105ef57600080fd5b506106326004803603602081101561060657600080fd5b81019080803573ffffffffffffffffffffffffffffffffffffffff169060200190929190505050610d9b565b60405180821515815260200191505060405180910390f35b34801561065657600080fd5b5061065f610e6b565b6040518082815260200191505060405180910390f35b34801561068157600080fd5b5061068a610e8f565b6040518082815260200191505060405180910390f35b3480156106ac57600080fd5b506106b5610e95565b6040518082815260200191505060405180910390f35b3480156106d757600080fd5b5061071a600480360360208110156106ee57600080fd5b81019080803573ffffffffffffffffffffffffffffffffffffffff169060200190929190505050610e9b565b005b34801561072857600080fd5b506107696004803603606081101561073f57600080fd5b8101908080359060200190929190803590602001909291908035906020019092919050505061100d565b005b34801561077757600080fd5b506107ba6004803603602081101561078e57600080fd5b81019080803573ffffffffffffffffffffffffffffffffffffffff169060200190929190505050610b15565b60405180821515815260200191505060405180910390f35b3480156107de57600080fd5b506107e761109d565b6040518082815260200191505060405180910390f35b34801561080957600080fd5b5061084c6004803603602081101561082057600080fd5b81019080803573ffffffffffffffffffffffffffffffffffffffff1690602001909291905050506110a3565b005b34801561085a57600080fd5b50610863611215565b604051808273ffffffffffffffffffffffffffffffffffffffff16815260200191505060405180910390f35b34801561089b57600080fd5b506108a4611239565b6040518080602001828103825283818151815260200191508051906020019080838360005b838110156108e45780820151818401526020810190506108c9565b50505050905090810190601f1680156109115780820380516001836020036101000a031916815260200191505b509250505060405180910390f35b34801561092b57600080fd5b50610934611272565b604051808273ffffffffffffffffffffffffffffffffffffffff16815260200191505060405180910390f35b34801561096c57600080fd5b506109af6004803603602081101561098357600080fd5b81019080803573ffffffffffffffffffffffffffffffffffffffff169060200190929190505050611298565b005b3480156109bd57600080fd5b50610a00600480360360208110156109d457600080fd5b81019080803573ffffffffffffffffffffffffffffffffffffffff169060200190929190505050610cf5565b60405180821515815260200191505060405180910390f35b348015610a2457600080fd5b50610a2d61140a565b6040518082815260200191505060405180910390f35b348015610a4f57600080fd5b50610a58611410565b6040518082815260200191505060405180910390f35b348015610a7a57600080fd5b50610a83611416565b6040518082815260200191505060405180910390f35b348015610aa557600080fd5b50610aae61143a565b6040518082815260200191505060405180910390f35b348015610ad057600080fd5b50610b1360048036036020811015610ae757600080fd5b81019080803573ffffffffffffffffffffffffffffffffffffffff169060200190929190505050611440565b005b600080600090505b600654811015610bb057600060098281548110610b3657fe5b9060005260206000200160009054906101000a900473ffffffffffffffffffffffffffffffffffffffff1690508373ffffffffffffffffffffffffffffffffffffffff168173ffffffffffffffffffffffffffffffffffffffff161415610ba257600192505050610bb6565b508080600101915050610b1d565b60009150505b919050565b80471015610c31576040517f08c379a000000000000000000000000000000000000000000000000000000000815260040180806020018281038252601d8152602001807f416464726573733a20696e73756666696369656e742062616c616e636500000081525060200191505060405180910390fd5b60008273ffffffffffffffffffffffffffffffffffffffff168260405180600001905060006040518083038185875af1925050503d8060008114610c91576040519150601f19603f3d011682016040523d82523d6000602084013e610c96565b606091505b5050905080610cf0576040517f08c379a000000000000000000000000000000000000000000000000000000000815260040180806020018281038252603a815260200180611590603a913960400191505060405180910390fd5b505050565b600080600090505b600754811015610d90576000600a8281548110610d1657fe5b9060005260206000200160009054906101000a900473ffffffffffffffffffffffffffffffffffffffff1690508373ffffffffffffffffffffffffffffffffffffffff168173ffffffffffffffffffffffffffffffffffffffff161415610d8257600192505050610d96565b508080600101915050610cfd565b60009150505b919050565b600080600090505b600854811015610e36576000600b8281548110610dbc57fe5b9060005260206000200160009054906101000a900473ffffffffffffffffffffffffffffffffffffffff1690508373ffffffffffffffffffffffffffffffffffffffff168173ffffffffffffffffffffffffffffffffffffffff161415610e2857600192505050610e3c565b508080600101915050610da3565b60009150505b919050565b7f000000000000000000000000000000000000000000000000000000000000000081565b60055481565b7f000000000000000000000000000000000000000000000000000000000000000081565b60065481565b60045481565b60008054906101000a900473ffffffffffffffffffffffffffffffffffffffff1673ffffffffffffffffffffffffffffffffffffffff163373ffffffffffffffffffffffffffffffffffffffff1614610ef357600080fd5b600073ffffffffffffffffffffffffffffffffffffffff168173ffffffffffffffffffffffffffffffffffffffff161415610f96576040517f08c379a000000000000000000000000000000000000000000000000000000000815260040180806020018281038252600f8152602001807f496e76616c69642061646472657373000000000000000000000000000000000081525060200191505060405180910390fd5b600b819080600181540180825580915050600190039060005260206000200160009091909190916101000a81548173ffffffffffffffffffffffffffffffffffffffff021916908373ffffffffffffffffffffffffffffffffffffffff160217905550600160086000828254019250508190555050565b60008054906101000a900473ffffffffffffffffffffffffffffffffffffffff1673ffffffffffffffffffffffffffffffffffffffff163373ffffffffffffffffffffffffffffffffffffffff161461106557600080fd5b670de0b6b3a76400008302600381905550670de0b6b3a76400008202600481905550670de0b6b3a76400008102600581905550505050565b60035481565b60008054906101000a900473ffffffffffffffffffffffffffffffffffffffff1673ffffffffffffffffffffffffffffffffffffffff163373ffffffffffffffffffffffffffffffffffffffff16146110fb57600080fd5b600073ffffffffffffffffffffffffffffffffffffffff168173ffffffffffffffffffffffffffffffffffffffff16141561119e576040517f08c379a000000000000000000000000000000000000000000000000000000000815260040180806020018281038252600f8152602001807f496e76616c69642061646472657373000000000000000000000000000000000081525060200191505060405180910390fd5b6009819080600181540180825580915050600190039060005260206000200160009091909190916101000a81548173ffffffffffffffffffffffffffffffffffffffff021916908373ffffffffffffffffffffffffffffffffffffffff160217905550600160066000828254019250508190555050565b60008054906101000a900473ffffffffffffffffffffffffffffffffffffffff1681565b6040518060400160405280600d81526020017f536565646966792e66756e64730000000000000000000000000000000000000081525081565b600260009054906101000a900473ffffffffffffffffffffffffffffffffffffffff1681565b60008054906101000a900473ffffffffffffffffffffffffffffffffffffffff1673ffffffffffffffffffffffffffffffffffffffff163373ffffffffffffffffffffffffffffffffffffffff16146112f057600080fd5b600073ffffffffffffffffffffffffffffffffffffffff168173ffffffffffffffffffffffffffffffffffffffff161415611393576040517f08c379a000000000000000000000000000000000000000000000000000000000815260040180806020018281038252600f8152602001807f496e76616c69642061646472657373000000000000000000000000000000000081525060200191505060405180910390fd5b600a819080600181540180825580915050600190039060005260206000200160009091909190916101000a81548173ffffffffffffffffffffffffffffffffffffffff021916908373ffffffffffffffffffffffffffffffffffffffff160217905550600160076000828254019250508190555050565b60015481565b60085481565b7f000000000000000000000000000000000000000000000000000000000000000081565b60075481565b60008054906101000a900473ffffffffffffffffffffffffffffffffffffffff1673ffffffffffffffffffffffffffffffffffffffff163373ffffffffffffffffffffffffffffffffffffffff161461149857600080fd5b600073ffffffffffffffffffffffffffffffffffffffff168173ffffffffffffffffffffffffffffffffffffffff1614156114d257600080fd5b8073ffffffffffffffffffffffffffffffffffffffff1660008054906101000a900473ffffffffffffffffffffffffffffffffffffffff1673ffffffffffffffffffffffffffffffffffffffff167f8be0079c531659141344cd1fd0a4f28419497f9722a3daafe3b4186f6b6457e060405160405180910390a3806000806101000a81548173ffffffffffffffffffffffffffffffffffffffff021916908373ffffffffffffffffffffffffffffffffffffffff1602179055505056fe416464726573733a20756e61626c6520746f2073656e642076616c75652c20726563697069656e74206d61792068617665207265766572746564627579546f6b656e733a20707572636861736520776f756c6420657863656564206d617820636170a26469706673582212202d54458fb58e9d45edf3f34c4318f52a646c46de1aa3b9851a08c6b0e737184864736f6c634300060c0033",
  "immutableReferences": {
    "69": [
      {
        "length": 32,
        "start": 741
      },
      {
        "length": 32,
        "start": 980
      },
      {
        "length": 32,
        "start": 1219
      },
      {
        "length": 32,
        "start": 3693
      }
    ],
    "71": [
      {
        "length": 32,
        "start": 309
      },
      {
        "length": 32,
        "start": 3651
      }
    ],
    "73": [
      {
        "length": 32,
        "start": 459
      },
      {
        "length": 32,
        "start": 5144
      }
    ]
  },
  "source": "/*\n*Seedify.fund\n*Decentralized Incubator\n*A disruptive blockchain incubator program / decentralized seed stage fund, empowered through DAO based community-involvement mechanisms\n*/\npragma solidity ^0.6.0;\n\n// SPDX-License-Identifier: MIT\n\nimport \"../Ownable/Ownable.sol\";\n\n//SeedifyFundsContract\n\ncontract SeedifyFundsContract is Ownable {\n\n  //token attributes\n  string public constant NAME = \"Seedify.funds\"; //name of the contract\n  uint public immutable maxCap; // Max cap in BNB\n  uint256 public immutable saleStartTime; // start sale time\n  uint256 public immutable saleEndTime; // end sale time\n  uint256 public totalBnbReceived; // total bnd received\n  address payable public projectOwner;\n  // tiers limit\n  uint public oneTier;  // value in bnb\n  uint public twoTier ; // value in bnb\n  uint public threeTier;  // value in bnb\n  // tiers Aarry length\n  uint public oneTierArrLength = 0;  // Aarry length of tier one\n  uint public twoTierArrLength = 0; // Aarry length of tier two\n  uint public threeTierArrLength = 0;  // Aarry length of tier three\n \n  // address array for tier one whitelist\n  address[] private whitelistTierOne; \n  \n  // address array for tier two whitelist\n  address[] private whitelistTierTwo; \n  \n  // address array for tier three whitelist\n  address[] private whitelistTierThree; \n\n\n  // CONSTRUCTOR  \n  constructor(uint _maxCap, uint256 _saleStartTime, uint256 _saleEndTime,uint _oneTier,uint _twoTier,uint _threeTier, address payable _projectOwner) public {\n    maxCap = _maxCap* 10 ** 18;\n    saleStartTime = _saleStartTime;\n    saleEndTime = _saleEndTime;\n    oneTier =_oneTier* 10 ** 18;\n    twoTier = _twoTier * 10 ** 18;\n    threeTier =_threeTier* 10 ** 18;\n    projectOwner = _projectOwner;\n  }\n\n  // function to update the tiers value manually\n  function updateTierValues(uint256 _tierOneValue, uint256 _tierTwoValue, uint256 _tierThreeValue) external onlyOwner {\n    oneTier =_tierOneValue* 10 ** 18;\n    twoTier = _tierTwoValue * 10 ** 18;\n    threeTier =_tierThreeValue* 10 ** 18;\n  }\n\n  //add the address in Whitelist tier One to invest\n  function addWhitelistOne(address _address) external onlyOwner {\n    require(_address != address(0), \"Invalid address\");\n    whitelistTierOne.push(_address);\n    oneTierArrLength += 1;\n  }\n\n  //add the address in Whitelist tier two to invest\n  function addWhitelistTwo(address _address) external onlyOwner {\n    require(_address != address(0), \"Invalid address\");\n    whitelistTierTwo.push(_address);\n    twoTierArrLength += 1;\n  }\n\n  //add the address in Whitelist tier three to invest\n  function addWhitelistThree(address _address) external onlyOwner {\n    require(_address != address(0), \"Invalid address\");\n    whitelistTierThree.push(_address);\n    threeTierArrLength += 1;\n  }\n\n  // check the address in whitelist tier one\n  function getWhitelistOne(address _address) public view returns(bool) {\n    uint i;\n    for (i = 0; i < oneTierArrLength; i++) {\n      address _addressArr = whitelistTierOne[i];\n      if (_addressArr == _address) {\n        return true;\n      }\n    }\n    return false;\n  }\n\n  // check the address in whitelist tier two\n  function getWhitelistTwo(address _address) public view returns(bool) {\n    uint i;\n    for (i = 0; i < twoTierArrLength; i++) {\n      address _addressArr = whitelistTierTwo[i];\n      if (_addressArr == _address) {\n        return true;\n      }\n    }\n    return false;\n  }\n\n  // check the address in whitelist tier three\n  function getWhitelistThree(address _address) public view returns(bool) {\n    uint i;\n    for (i = 0; i < threeTierArrLength; i++) {\n      address _addressArr = whitelistTierThree[i];\n      if (_addressArr == _address) {\n        return true;\n      }\n    }\n    return false;\n  }\n    /**\n     * @dev Replacement for Solidity's `transfer`: sends `amount` wei to\n     * `recipient`, forwarding all available gas and reverting on errors.\n     *\n     * https://eips.ethereum.org/EIPS/eip-1884[EIP1884] increases the gas cost\n     * of certain opcodes, possibly making contracts go over the 2300 gas limit\n     * imposed by `transfer`, making them unable to receive funds via\n     * `transfer`. {sendValue} removes this limitation.\n     *\n     * https://diligence.consensys.net/posts/2019/09/stop-using-soliditys-transfer-now/[Learn more].\n     *\n     * IMPORTANT: because control is transferred to `recipient`, care must be\n     * taken to not create reentrancy vulnerabilities. Consider using\n     * {ReentrancyGuard} or the\n     * https://solidity.readthedocs.io/en/v0.5.11/security-considerations.html#use-the-checks-effects-interactions-pattern[checks-effects-interactions pattern].\n     */\n    function sendValue(address payable recipient, uint256 amount) internal {\n        require(address(this).balance >= amount, \"Address: insufficient balance\");\n\n        // solhint-disable-next-line avoid-low-level-calls, avoid-call-value\n        (bool success, ) = recipient.call{ value: amount }(\"\");\n        require(success, \"Address: unable to send value, recipient may have reverted\");\n    }\n    \n  // send bnb to the contract address\n  receive() external payable {\n     require(now >= saleStartTime, \"The sale is not started yet \"); // solhint-disable\n     require(now <= saleEndTime, \"The sale is closed\"); // solhint-disable\n     \n    if (msg.value <= oneTier) { // smaller and Equal to 1st tier BNB \n      require(getWhitelistOne(msg.sender), 'This address is not whitelisted');\n      require(totalBnbReceived + msg.value <= maxCap, \"buyTokens: purchase would exceed max cap\");\n      totalBnbReceived += msg.value;\n      sendValue(projectOwner, address(this).balance);\n      \n    } else if (msg.value > oneTier && msg.value <= twoTier) { // Greater than 1st and smaller/equal to 2nd tier bnb\n      require(getWhitelistTwo(msg.sender) == true);\n      require(totalBnbReceived + msg.value <= maxCap, \"buyTokens: purchase would exceed max cap\");\n      totalBnbReceived += msg.value;\n      sendValue(projectOwner, address(this).balance);\n      \n    } else if (msg.value > twoTier && msg.value <= threeTier) { // Greater than 2nd and smaller/equal to 3rd tier bnb\n      require(getWhitelistThree(msg.sender) == true);\n      require(totalBnbReceived + msg.value <= maxCap, \"buyTokens: purchase would exceed max cap\");\n      totalBnbReceived += msg.value;\n      sendValue(projectOwner, address(this).balance);\n      \n    } else {\n      revert();\n    }\n  }\n}",
  "sourcePath": "/var/malkeet/seedify/contracts/SeedifyFund/SeedifyFund.sol",
  "compiler": {
    "name": "solc",
    "version": "0.6.12+commit.27d51765.Emscripten.clang"
  },
  "schemaVersion": "3.3.4",
  "updatedAt": "2021-05-25T19:04:50.321Z",
  "devdoc": {
    "kind": "dev",
    "methods": {
      "transferOwnership(address)": {
        "details": "Allows the current owner to transfer control of the contract to a newOwner.",
        "params": {
          "newOwner": "The address to transfer ownership to."
        }
      }
    },
    "version": 1
  },
  "userdoc": {
    "kind": "user",
    "methods": {},
    "version": 1
  }
}