{
  "contractName": "SeedifyFundsContract",
  "abi": [
    {
      "constant": true,
      "inputs": [],
      "name": "name",
      "outputs": [
        {
          "name": "",
          "type": "string"
        }
      ],
      "payable": false,
      "stateMutability": "view",
      "type": "function"
    },
    {
      "constant": true,
      "inputs": [],
      "name": "saleStartTime",
      "outputs": [
        {
          "name": "",
          "type": "uint256"
        }
      ],
      "payable": false,
      "stateMutability": "view",
      "type": "function"
    },
    {
      "constant": true,
      "inputs": [],
      "name": "threeTier",
      "outputs": [
        {
          "name": "",
          "type": "uint256"
        }
      ],
      "payable": false,
      "stateMutability": "view",
      "type": "function"
    },
    {
      "constant": true,
      "inputs": [],
      "name": "maxCap",
      "outputs": [
        {
          "name": "",
          "type": "uint256"
        }
      ],
      "payable": false,
      "stateMutability": "view",
      "type": "function"
    },
    {
      "constant": true,
      "inputs": [],
      "name": "twoTier",
      "outputs": [
        {
          "name": "",
          "type": "uint256"
        }
      ],
      "payable": false,
      "stateMutability": "view",
      "type": "function"
    },
    {
      "constant": true,
      "inputs": [],
      "name": "oneTier",
      "outputs": [
        {
          "name": "",
          "type": "uint256"
        }
      ],
      "payable": false,
      "stateMutability": "view",
      "type": "function"
    },
    {
      "constant": true,
      "inputs": [],
      "name": "owner",
      "outputs": [
        {
          "name": "",
          "type": "address"
        }
      ],
      "payable": false,
      "stateMutability": "view",
      "type": "function"
    },
    {
      "constant": true,
      "inputs": [],
      "name": "isTokenSaleActive",
      "outputs": [
        {
          "name": "",
          "type": "bool"
        }
      ],
      "payable": false,
      "stateMutability": "view",
      "type": "function"
    },
    {
      "constant": true,
      "inputs": [],
      "name": "totalBnbReceived",
      "outputs": [
        {
          "name": "",
          "type": "uint256"
        }
      ],
      "payable": false,
      "stateMutability": "view",
      "type": "function"
    },
    {
      "constant": true,
      "inputs": [],
      "name": "saleEndTime",
      "outputs": [
        {
          "name": "",
          "type": "uint256"
        }
      ],
      "payable": false,
      "stateMutability": "view",
      "type": "function"
    },
    {
      "constant": false,
      "inputs": [
        {
          "name": "newOwner",
          "type": "address"
        }
      ],
      "name": "transferOwnership",
      "outputs": [],
      "payable": false,
      "stateMutability": "nonpayable",
      "type": "function"
    },
    {
      "inputs": [],
      "payable": false,
      "stateMutability": "nonpayable",
      "type": "constructor"
    },
    {
      "payable": true,
      "stateMutability": "payable",
      "type": "fallback"
    },
    {
      "anonymous": false,
      "inputs": [
        {
          "indexed": true,
          "name": "previousOwner",
          "type": "address"
        },
        {
          "indexed": true,
          "name": "newOwner",
          "type": "address"
        }
      ],
      "name": "OwnershipTransferred",
      "type": "event"
    },
    {
      "constant": false,
      "inputs": [],
      "name": "startTokenSale",
      "outputs": [
        {
          "name": "",
          "type": "bool"
        }
      ],
      "payable": false,
      "stateMutability": "nonpayable",
      "type": "function"
    },
    {
      "constant": false,
      "inputs": [],
      "name": "endTokenSale",
      "outputs": [
        {
          "name": "",
          "type": "bool"
        }
      ],
      "payable": false,
      "stateMutability": "nonpayable",
      "type": "function"
    },
    {
      "constant": false,
      "inputs": [
        {
          "name": "_tierOneValue",
          "type": "uint256"
        },
        {
          "name": "_tierTwoValue",
          "type": "uint256"
        },
        {
          "name": "_tierThreeValue",
          "type": "uint256"
        }
      ],
      "name": "updateTierValues",
      "outputs": [],
      "payable": false,
      "stateMutability": "nonpayable",
      "type": "function"
    },
    {
      "constant": false,
      "inputs": [
        {
          "name": "_address",
          "type": "address"
        }
      ],
      "name": "addWhitelistOne",
      "outputs": [],
      "payable": false,
      "stateMutability": "nonpayable",
      "type": "function"
    },
    {
      "constant": false,
      "inputs": [
        {
          "name": "_address",
          "type": "address"
        }
      ],
      "name": "addWhitelistTwo",
      "outputs": [],
      "payable": false,
      "stateMutability": "nonpayable",
      "type": "function"
    },
    {
      "constant": false,
      "inputs": [
        {
          "name": "_address",
          "type": "address"
        }
      ],
      "name": "addWhitelistThree",
      "outputs": [],
      "payable": false,
      "stateMutability": "nonpayable",
      "type": "function"
    },
    {
      "constant": true,
      "inputs": [
        {
          "name": "_address",
          "type": "address"
        }
      ],
      "name": "getWhitelistOne",
      "outputs": [
        {
          "name": "",
          "type": "bool"
        }
      ],
      "payable": false,
      "stateMutability": "view",
      "type": "function"
    },
    {
      "constant": true,
      "inputs": [
        {
          "name": "_address",
          "type": "address"
        }
      ],
      "name": "getWhitelistTwo",
      "outputs": [
        {
          "name": "",
          "type": "bool"
        }
      ],
      "payable": false,
      "stateMutability": "view",
      "type": "function"
    },
    {
      "constant": true,
      "inputs": [
        {
          "name": "_address",
          "type": "address"
        }
      ],
      "name": "getWhitelistThree",
      "outputs": [
        {
          "name": "",
          "type": "bool"
        }
      ],
      "payable": false,
      "stateMutability": "view",
      "type": "function"
    },
    {
      "constant": false,
      "inputs": [
        {
          "name": "value",
          "type": "uint256"
        }
      ],
      "name": "invest",
      "outputs": [
        {
          "name": "",
          "type": "bool"
        }
      ],
      "payable": false,
      "stateMutability": "nonpayable",
      "type": "function"
    }
  ],
  "bytecode": "0x60806040526040805190810160405280600d81526020017f536565646966792e66756e6473000000000000000000000000000000000000008152506001908051906020019062000051929190620000fd565b506000600c60006101000a81548160ff0219169083151502179055503480156200007a57600080fd5b50336000806101000a81548173ffffffffffffffffffffffffffffffffffffffff021916908373ffffffffffffffffffffffffffffffffffffffff16021790555069152d02c7e14af680000060028190555042600381905550620151804201600481905550600160068190555060036007819055506005600881905550620001ac565b828054600181600116156101000203166002900490600052602060002090601f016020900481019282601f106200014057805160ff191683800117855562000171565b8280016001018555821562000171579182015b828111156200017057825182559160200191906001019062000153565b5b50905062000180919062000184565b5090565b620001a991905b80821115620001a55760008160009055506001016200018b565b5090565b90565b61162080620001bc6000396000f30060806040526004361061011d576000357c0100000000000000000000000000000000000000000000000000000000900463ffffffff16806306fdde03146101295780631cbaee2d146101b95780631e3d479a146101e457806322b153341461020f57806323548b8b1461026a5780632afcf48014610295578063307edff8146102da5780633bb74315146103095780633c6bb4741461033457806349f4ebb9146103775780634dce5168146103b857806352bbeef21461041357806362ace63f1461043e57806379798ccb146104815780638da5cb5b146104b057806398a6a6c014610507578063ae4fdad914610536578063b9ec0dde14610579578063c1f5138a146105d4578063ed338ff1146105ff578063f2fde38b1461062a575b6101263461066d565b50005b34801561013557600080fd5b5061013e610979565b6040518080602001828103825283818151815260200191508051906020019080838360005b8381101561017e578082015181840152602081019050610163565b50505050905090810190601f1680156101ab5780820380516001836020036101000a031916815260200191505b509250505060405180910390f35b3480156101c557600080fd5b506101ce610a17565b6040518082815260200191505060405180910390f35b3480156101f057600080fd5b506101f9610a1d565b6040518082815260200191505060405180910390f35b34801561021b57600080fd5b50610250600480360381019080803573ffffffffffffffffffffffffffffffffffffffff169060200190929190505050610a23565b604051808215151515815260200191505060405180910390f35b34801561027657600080fd5b5061027f610b17565b6040518082815260200191505060405180910390f35b3480156102a157600080fd5b506102c06004803603810190808035906020019092919050505061066d565b604051808215151515815260200191505060405180910390f35b3480156102e657600080fd5b506102ef610b1d565b604051808215151515815260200191505060405180910390f35b34801561031557600080fd5b5061031e610bc5565b6040518082815260200191505060405180910390f35b34801561034057600080fd5b50610375600480360381019080803573ffffffffffffffffffffffffffffffffffffffff169060200190929190505050610bcb565b005b34801561038357600080fd5b506103b6600480360381019080803590602001909291908035906020019092919080359060200190929190505050610d5d565b005b3480156103c457600080fd5b506103f9600480360381019080803573ffffffffffffffffffffffffffffffffffffffff169060200190929190505050610dd2565b604051808215151515815260200191505060405180910390f35b34801561041f57600080fd5b50610428610ec6565b6040518082815260200191505060405180910390f35b34801561044a57600080fd5b5061047f600480360381019080803573ffffffffffffffffffffffffffffffffffffffff169060200190929190505050610ecc565b005b34801561048d57600080fd5b5061049661105e565b604051808215151515815260200191505060405180910390f35b3480156104bc57600080fd5b506104c56110ec565b604051808273ffffffffffffffffffffffffffffffffffffffff1673ffffffffffffffffffffffffffffffffffffffff16815260200191505060405180910390f35b34801561051357600080fd5b5061051c611111565b604051808215151515815260200191505060405180910390f35b34801561054257600080fd5b50610577600480360381019080803573ffffffffffffffffffffffffffffffffffffffff169060200190929190505050611124565b005b34801561058557600080fd5b506105ba600480360381019080803573ffffffffffffffffffffffffffffffffffffffff1690602001909291905050506112b6565b604051808215151515815260200191505060405180910390f35b3480156105e057600080fd5b506105e96113aa565b6040518082815260200191505060405180910390f35b34801561060b57600080fd5b506106146113b0565b6040518082815260200191505060405180910390f35b34801561063657600080fd5b5061066b600480360381019080803573ffffffffffffffffffffffffffffffffffffffff1690602001909291905050506113b6565b005b6000801515600c60009054906101000a900460ff1615151415151561069157600080fd5b6006548211151561077d57600115156106a933610dd2565b15151415156106b757600080fd5b60025482600554011115151561075b576040517f08c379a00000000000000000000000000000000000000000000000000000000081526004018080602001828103825260288152602001807f627579546f6b656e733a20707572636861736520776f756c642065786365656481526020017f206d61782063617000000000000000000000000000000000000000000000000081525060400191505060405180910390fd5b816005600082825401925050819055506107748261150b565b60019050610974565b6006548211801561079057506007548211155b1561087657600115156107a2336112b6565b15151415156107b057600080fd5b600254826005540111151515610854576040517f08c379a00000000000000000000000000000000000000000000000000000000081526004018080602001828103825260288152602001807f627579546f6b656e733a20707572636861736520776f756c642065786365656481526020017f206d61782063617000000000000000000000000000000000000000000000000081525060400191505060405180910390fd5b8160056000828254019250508190555061086d8261150b565b60019050610974565b6007548211801561088957506008548211155b1561096f576001151561089b33610a23565b15151415156108a957600080fd5b60025482600554011115151561094d576040517f08c379a00000000000000000000000000000000000000000000000000000000081526004018080602001828103825260288152602001807f627579546f6b656e733a20707572636861736520776f756c642065786365656481526020017f206d61782063617000000000000000000000000000000000000000000000000081525060400191505060405180910390fd5b816005600082825401925050819055506109668261150b565b60019050610974565b600080fd5b919050565b60018054600181600116156101000203166002900480601f016020809104026020016040519081016040528092919081815260200182805460018160011615610100020316600290048015610a0f5780601f106109e457610100808354040283529160200191610a0f565b820191906000526020600020905b8154815290600101906020018083116109f257829003601f168201915b505050505081565b60035481565b60085481565b600080610a2e611576565b600091505b600b80549050821015610b0b57600b82815481101515610a4f57fe5b90600052602060002001602060405190810160405290816000820160009054906101000a900473ffffffffffffffffffffffffffffffffffffffff1673ffffffffffffffffffffffffffffffffffffffff1673ffffffffffffffffffffffffffffffffffffffff168152505090508373ffffffffffffffffffffffffffffffffffffffff16816000015173ffffffffffffffffffffffffffffffffffffffff161415610afe5760019250610b10565b8180600101925050610a33565b600092505b5050919050565b60025481565b60008060009054906101000a900473ffffffffffffffffffffffffffffffffffffffff1673ffffffffffffffffffffffffffffffffffffffff163373ffffffffffffffffffffffffffffffffffffffff16141515610b7a57600080fd5b6001600c60006101000a81548160ff021916908315150217905515610bbd576000600c60006101000a81548160ff02191690831515021790555060019050610bc2565b600090505b90565b60075481565b610bd3611576565b6000809054906101000a900473ffffffffffffffffffffffffffffffffffffffff1673ffffffffffffffffffffffffffffffffffffffff163373ffffffffffffffffffffffffffffffffffffffff16141515610cbd576040517f08c379a000000000000000000000000000000000000000000000000000000000815260040180806020018281038252602f8152602001807f4f6e6c79206f776e6572206861732074686520726967687420746f207065726681526020017f6f726d207468697320616374696f6e000000000000000000000000000000000081525060400191505060405180910390fd5b6020604051908101604052808373ffffffffffffffffffffffffffffffffffffffff168152509050600b8190806001815401808255809150509060018203906000526020600020016000909192909190915060008201518160000160006101000a81548173ffffffffffffffffffffffffffffffffffffffff021916908373ffffffffffffffffffffffffffffffffffffffff1602179055505050505050565b6000809054906101000a900473ffffffffffffffffffffffffffffffffffffffff1673ffffffffffffffffffffffffffffffffffffffff163373ffffffffffffffffffffffffffffffffffffffff16141515610db857600080fd5b826006819055508160078190555080600881905550505050565b600080610ddd6115a0565b600091505b600980549050821015610eba57600982815481101515610dfe57fe5b90600052602060002001602060405190810160405290816000820160009054906101000a900473ffffffffffffffffffffffffffffffffffffffff1673ffffffffffffffffffffffffffffffffffffffff1673ffffffffffffffffffffffffffffffffffffffff168152505090508373ffffffffffffffffffffffffffffffffffffffff16816000015173ffffffffffffffffffffffffffffffffffffffff161415610ead5760019250610ebf565b8180600101925050610de2565b600092505b5050919050565b60065481565b610ed46115a0565b6000809054906101000a900473ffffffffffffffffffffffffffffffffffffffff1673ffffffffffffffffffffffffffffffffffffffff163373ffffffffffffffffffffffffffffffffffffffff16141515610fbe576040517f08c379a000000000000000000000000000000000000000000000000000000000815260040180806020018281038252602f8152602001807f4f6e6c79206f776e6572206861732074686520726967687420746f207065726681526020017f6f726d207468697320616374696f6e000000000000000000000000000000000081525060400191505060405180910390fd5b6020604051908101604052808373ffffffffffffffffffffffffffffffffffffffff16815250905060098190806001815401808255809150509060018203906000526020600020016000909192909190915060008201518160000160006101000a81548173ffffffffffffffffffffffffffffffffffffffff021916908373ffffffffffffffffffffffffffffffffffffffff1602179055505050505050565b60008060009054906101000a900473ffffffffffffffffffffffffffffffffffffffff1673ffffffffffffffffffffffffffffffffffffffff163373ffffffffffffffffffffffffffffffffffffffff161415156110bb57600080fd5b600c60009054906101000a900460ff1615600c60006101000a81548160ff0219169083151502179055506001905090565b6000809054906101000a900473ffffffffffffffffffffffffffffffffffffffff1681565b600c60009054906101000a900460ff1681565b61112c6115ca565b6000809054906101000a900473ffffffffffffffffffffffffffffffffffffffff1673ffffffffffffffffffffffffffffffffffffffff163373ffffffffffffffffffffffffffffffffffffffff16141515611216576040517f08c379a000000000000000000000000000000000000000000000000000000000815260040180806020018281038252602f8152602001807f4f6e6c79206f776e6572206861732074686520726967687420746f207065726681526020017f6f726d207468697320616374696f6e000000000000000000000000000000000081525060400191505060405180910390fd5b6020604051908101604052808373ffffffffffffffffffffffffffffffffffffffff168152509050600a8190806001815401808255809150509060018203906000526020600020016000909192909190915060008201518160000160006101000a81548173ffffffffffffffffffffffffffffffffffffffff021916908373ffffffffffffffffffffffffffffffffffffffff1602179055505050505050565b6000806112c16115ca565b600091505b600a8054905082101561139e57600a828154811015156112e257fe5b90600052602060002001602060405190810160405290816000820160009054906101000a900473ffffffffffffffffffffffffffffffffffffffff1673ffffffffffffffffffffffffffffffffffffffff1673ffffffffffffffffffffffffffffffffffffffff168152505090508373ffffffffffffffffffffffffffffffffffffffff16816000015173ffffffffffffffffffffffffffffffffffffffff16141561139157600192506113a3565b81806001019250506112c6565b600092505b5050919050565b60055481565b60045481565b6000809054906101000a900473ffffffffffffffffffffffffffffffffffffffff1673ffffffffffffffffffffffffffffffffffffffff163373ffffffffffffffffffffffffffffffffffffffff1614151561141157600080fd5b600073ffffffffffffffffffffffffffffffffffffffff168173ffffffffffffffffffffffffffffffffffffffff161415151561144d57600080fd5b8073ffffffffffffffffffffffffffffffffffffffff166000809054906101000a900473ffffffffffffffffffffffffffffffffffffffff1673ffffffffffffffffffffffffffffffffffffffff167f8be0079c531659141344cd1fd0a4f28419497f9722a3daafe3b4186f6b6457e060405160405180910390a3806000806101000a81548173ffffffffffffffffffffffffffffffffffffffff021916908373ffffffffffffffffffffffffffffffffffffffff16021790555050565b6000809054906101000a900473ffffffffffffffffffffffffffffffffffffffff1673ffffffffffffffffffffffffffffffffffffffff166108fc829081150290604051600060405180830381858888f19350505050158015611572573d6000803e3d6000fd5b5050565b602060405190810160405280600073ffffffffffffffffffffffffffffffffffffffff1681525090565b602060405190810160405280600073ffffffffffffffffffffffffffffffffffffffff1681525090565b602060405190810160405280600073ffffffffffffffffffffffffffffffffffffffff16815250905600a165627a7a723058204b410551ca065fa5d18b204dc02c02edbf39463a8de6e239c1273000d24f895d0029",
  "source": "pragma solidity >=0.4.25;\nimport \"../Ownable/Ownable.sol\";\n\n//SeedifyFundsContract\n\ncontract SeedifyFundsContract is Ownable {\n\n  //token attributes\n  string public name = \"Seedify.funds\"; //name of the contract\n  uint public maxCap; // Max cap in BNB\n  uint256 public saleStartTime; // start sale time\n  uint256 public saleEndTime; // end sale time\n  uint256 public totalBnbReceived; // total bnd received\n\n  // tiers limit\n  uint public oneTier;  // value in bnb\n  uint public twoTier ; // value in bnb\n  uint public threeTier;  // value in bnb\n\n  // Structure for tier one\n  struct TierOne {\n    address _address;\n  }\n  // Structure for tier two\n  struct TierTwo {\n    address _address;\n  }\n  // Structure for tier two\n  struct TierThree {\n    address _address;\n  }\n\n  // different tiers to whitelist address  \n  TierOne[] internal whitelistTierOne;\n  TierTwo[] internal whitelistTierTwo;\n  TierThree[] internal whitelistTierThree;\n\n  bool public isTokenSaleActive = false; // Flag to track the TokenSale active or not\n  enum State {\n    TokenSale\n  }\n\n  // CONSTRUCTOR for Distribution \n\n  constructor() public {\n    maxCap = 100000 * 10**18;\n    saleStartTime = now;\n    saleEndTime = now + 86400;\n    oneTier = 1; // 1 bnb\n    twoTier = 3; // 3 bnb\n    threeTier = 5; // 5 bnb\n  }\n\n  // startTokenSale function use to start the crowdfund\n  function startTokenSale() public onlyOwner returns(bool) {\n    isTokenSaleActive = !isTokenSaleActive;\n    return true;\n  }\n\n  // function to end the crowdfund\n  function endTokenSale() public onlyOwner returns(bool) {\n    if (isTokenSaleActive = true) {\n      isTokenSaleActive = false;\n      return true;\n    }\n    return false;\n  }\n\n  // function to get the current state of the token sale\n  function getState() internal constant returns(State) {\n    if (isTokenSaleActive) {\n      return State.TokenSale;\n    }\n  }\n\n  // function to update the tiers value manually\n  function updateTierValues(uint256 _tierOneValue, uint256 _tierTwoValue, uint256 _tierThreeValue) external onlyOwner {\n    oneTier = _tierOneValue;\n    twoTier = _tierTwoValue;\n    threeTier = _tierThreeValue;\n  }\n\n  // function to transfer the funds to owner account\n  function fundTransfer(uint256 weiAmount) internal {\n    owner.transfer(weiAmount);\n  }\n\n  //add the address in Whitelist tier One to invest\n  function addWhitelistOne(address _address) public {\n    require(msg.sender == owner, \"Only owner has the right to perform this action\");\n    TierOne memory a = TierOne(_address);\n    whitelistTierOne.push(a);\n  }\n\n  //add the address in Whitelist tier two to invest\n  function addWhitelistTwo(address _address) public {\n    require(msg.sender == owner, \"Only owner has the right to perform this action\");\n    TierTwo memory b = TierTwo(_address);\n    whitelistTierTwo.push(b);\n  }\n\n  //add the address in Whitelist tier three to invest\n  function addWhitelistThree(address _address) public {\n    require(msg.sender == owner, \"Only owner has the right to perform this action\");\n    TierThree memory c = TierThree(_address);\n    whitelistTierThree.push(c);\n  }\n\n  // check the address in whitelist tier one\n  function getWhitelistOne(address _address) public view returns(bool) {\n    uint i;\n    for (i = 0; i < whitelistTierOne.length; i++) {\n      TierOne memory a = whitelistTierOne[i];\n      if (a._address == _address) {\n        return true;\n      }\n    }\n    return false;\n  }\n\n  // check the address in whitelist tier two\n  function getWhitelistTwo(address _address) public view returns(bool) {\n    uint i;\n    for (i = 0; i < whitelistTierTwo.length; i++) {\n      TierTwo memory b = whitelistTierTwo[i];\n      if (b._address == _address) {\n        return true;\n      }\n    }\n    return false;\n  }\n\n  // check the address in whitelist tier three\n  function getWhitelistThree(address _address) public view returns(bool) {\n    uint i;\n    for (i = 0; i < whitelistTierThree.length; i++) {\n      TierThree memory c = whitelistTierThree[i];\n      if (c._address == _address) {\n        return true;\n      }\n    }\n    return false;\n  }\n\n  // Invest will check the conditions and distribute the amounts\n  function invest(uint256 value) public returns(bool) {\n    require(isTokenSaleActive != false);\n\n    if (value <= oneTier) { // smaller and Equal to 1st tier BNB \n      require(getWhitelistOne(msg.sender) == true);\n     require(totalBnbReceived + value <= maxCap, \"buyTokens: purchase would exceed max cap\");\n    totalBnbReceived += value;\n      fundTransfer(value);\n      return true;\n    } else if (value > oneTier && value <= twoTier) { // Greater than 1st and smaller/equal to 2nd tier bnb\n      require(getWhitelistTwo(msg.sender) == true);\n          require(totalBnbReceived + value <= maxCap, \"buyTokens: purchase would exceed max cap\");\n    totalBnbReceived += value;\n      fundTransfer(value);\n      return true;\n    } else if (value > twoTier && value <= threeTier) { // Greater than 2nd and smaller/equal to 3rd tier bnb\n      require(getWhitelistThree(msg.sender) == true);\n          require(totalBnbReceived + value <= maxCap, \"buyTokens: purchase would exceed max cap\");\n    totalBnbReceived += value;\n      fundTransfer(value);\n      return true;\n    } else {\n      revert();\n    }\n  }\n\n  // send bnb to the contract address\n  function() public payable {\n    invest(msg.value);\n  }\n}",
  "sourcePath": "/var/malkeet/seedify/contracts/SeedifyFund/SeedifyFund.sol",
  "compiler": {
    "name": "solc",
    "version": "0.4.26+commit.4563c3fc.Emscripten.clang"
  },
  "schemaVersion": "3.3.4",
  "updatedAt": "2021-04-15T08:08:15.901Z",
  "devdoc": {
    "methods": {
      "transferOwnership(address)": {
        "details": "Allows the current owner to transfer control of the contract to a newOwner.",
        "params": {
          "newOwner": "The address to transfer ownership to."
        }
      }
    }
  },
  "userdoc": {
    "methods": {}
  }
}